{
  "contractName": "Voting",
  "abi": [
    {
      "anonymous": false,
      "inputs": [
        {
          "indexed": false,
          "internalType": "uint256",
          "name": "MaxProposal",
          "type": "uint256"
        }
      ],
      "name": "MaxProposals",
      "type": "event"
    },
    {
      "anonymous": false,
      "inputs": [
        {
          "indexed": false,
          "internalType": "uint256",
          "name": "MaxVoters",
          "type": "uint256"
        }
      ],
      "name": "MaxVoters",
      "type": "event"
    },
    {
      "anonymous": false,
      "inputs": [
        {
          "indexed": true,
          "internalType": "address",
          "name": "previousOwner",
          "type": "address"
        },
        {
          "indexed": true,
          "internalType": "address",
          "name": "newOwner",
          "type": "address"
        }
      ],
      "name": "OwnershipTransferred",
      "type": "event"
    },
    {
      "anonymous": false,
      "inputs": [
        {
          "indexed": false,
          "internalType": "uint256",
          "name": "proposalId",
          "type": "uint256"
        }
      ],
      "name": "ProposalRegistered",
      "type": "event"
    },
    {
      "anonymous": false,
      "inputs": [
        {
          "indexed": false,
          "internalType": "address",
          "name": "voter",
          "type": "address"
        },
        {
          "indexed": false,
          "internalType": "uint256",
          "name": "proposalId",
          "type": "uint256"
        }
      ],
      "name": "Voted",
      "type": "event"
    },
    {
      "anonymous": false,
      "inputs": [
        {
          "indexed": false,
          "internalType": "address",
          "name": "voterAddress",
          "type": "address"
        }
      ],
      "name": "VoterRegistered",
      "type": "event"
    },
    {
      "anonymous": false,
      "inputs": [
        {
          "indexed": false,
          "internalType": "enum Voting.WorkflowStatus",
          "name": "previousStatus",
          "type": "uint8"
        },
        {
          "indexed": false,
          "internalType": "enum Voting.WorkflowStatus",
          "name": "newStatus",
          "type": "uint8"
        }
      ],
      "name": "WorkflowStatusChange",
      "type": "event"
    },
    {
      "inputs": [],
      "name": "owner",
      "outputs": [
        {
          "internalType": "address",
          "name": "",
          "type": "address"
        }
      ],
      "stateMutability": "view",
      "type": "function",
      "constant": true
    },
    {
      "inputs": [],
      "name": "renounceOwnership",
      "outputs": [],
      "stateMutability": "nonpayable",
      "type": "function"
    },
    {
      "inputs": [
        {
          "internalType": "address",
          "name": "newOwner",
          "type": "address"
        }
      ],
      "name": "transferOwnership",
      "outputs": [],
      "stateMutability": "nonpayable",
      "type": "function"
    },
    {
      "inputs": [],
      "name": "getNbProposals",
      "outputs": [
        {
          "internalType": "uint256",
          "name": "",
          "type": "uint256"
        }
      ],
      "stateMutability": "view",
      "type": "function",
      "constant": true
    },
    {
      "inputs": [],
      "name": "getNbVoters",
      "outputs": [
        {
          "internalType": "uint256",
          "name": "",
          "type": "uint256"
        }
      ],
      "stateMutability": "view",
      "type": "function",
      "constant": true
    },
    {
      "inputs": [
        {
          "internalType": "uint256",
          "name": "_id",
          "type": "uint256"
        }
      ],
      "name": "getOneProposal",
      "outputs": [
        {
          "components": [
            {
              "internalType": "string",
              "name": "description",
              "type": "string"
            },
            {
              "internalType": "uint256",
              "name": "voteCount",
              "type": "uint256"
            }
          ],
          "internalType": "struct Voting.Proposal",
          "name": "",
          "type": "tuple"
        }
      ],
      "stateMutability": "view",
      "type": "function",
      "constant": true
    },
    {
      "inputs": [],
      "name": "getTotalVotes",
      "outputs": [
        {
          "internalType": "uint256",
          "name": "",
          "type": "uint256"
        }
      ],
      "stateMutability": "view",
      "type": "function",
      "constant": true
    },
    {
      "inputs": [
        {
          "internalType": "address",
          "name": "_addr",
          "type": "address"
        }
      ],
      "name": "getVoter",
      "outputs": [
        {
          "components": [
            {
              "internalType": "bool",
              "name": "isRegistered",
              "type": "bool"
            },
            {
              "internalType": "bool",
              "name": "hasVoted",
              "type": "bool"
            },
            {
              "internalType": "uint256",
              "name": "votedProposalId",
              "type": "uint256"
            }
          ],
          "internalType": "struct Voting.Voter",
          "name": "",
          "type": "tuple"
        }
      ],
      "stateMutability": "view",
      "type": "function",
      "constant": true
    },
    {
      "inputs": [],
      "name": "getWinner",
      "outputs": [
        {
          "components": [
            {
              "internalType": "string",
              "name": "description",
              "type": "string"
            },
            {
              "internalType": "uint256",
              "name": "voteCount",
              "type": "uint256"
            }
          ],
          "internalType": "struct Voting.Proposal[]",
          "name": "",
          "type": "tuple[]"
        }
      ],
      "stateMutability": "view",
      "type": "function",
      "constant": true
    },
    {
      "inputs": [],
      "name": "getWorkflowStatus",
      "outputs": [
        {
          "internalType": "enum Voting.WorkflowStatus",
          "name": "",
          "type": "uint8"
        }
      ],
      "stateMutability": "view",
      "type": "function",
      "constant": true
    },
    {
      "inputs": [
        {
          "internalType": "uint256",
          "name": "_nbVotersMax",
          "type": "uint256"
        }
      ],
      "name": "defineMaxVoters",
      "outputs": [],
      "stateMutability": "nonpayable",
      "type": "function"
    },
    {
      "inputs": [
        {
          "internalType": "address",
          "name": "_addr",
          "type": "address"
        }
      ],
      "name": "addVoter",
      "outputs": [],
      "stateMutability": "nonpayable",
      "type": "function"
    },
    {
      "inputs": [
        {
          "internalType": "uint256",
          "name": "_nbProposalsMax",
          "type": "uint256"
        }
      ],
      "name": "defineMaxProposals",
      "outputs": [],
      "stateMutability": "nonpayable",
      "type": "function"
    },
    {
      "inputs": [
        {
          "internalType": "string",
          "name": "_desc",
          "type": "string"
        }
      ],
      "name": "addProposal",
      "outputs": [],
      "stateMutability": "nonpayable",
      "type": "function"
    },
    {
      "inputs": [
        {
          "internalType": "uint256",
          "name": "_id",
          "type": "uint256"
        }
      ],
      "name": "setVote",
      "outputs": [],
      "stateMutability": "nonpayable",
      "type": "function"
    },
    {
      "inputs": [],
      "name": "startProposalsRegistering",
      "outputs": [],
      "stateMutability": "nonpayable",
      "type": "function"
    },
    {
      "inputs": [],
      "name": "endProposalsRegistering",
      "outputs": [],
      "stateMutability": "nonpayable",
      "type": "function"
    },
    {
      "inputs": [],
      "name": "startVotingSession",
      "outputs": [],
      "stateMutability": "nonpayable",
      "type": "function"
    },
    {
      "inputs": [],
      "name": "endVotingSession",
      "outputs": [],
      "stateMutability": "nonpayable",
      "type": "function"
    },
    {
      "inputs": [],
      "name": "tallyVotesDraw",
      "outputs": [],
      "stateMutability": "nonpayable",
      "type": "function"
    }
  ],
  "bytecode": "0x608060405234801561001057600080fd5b5061001a3361001f565b61006f565b600080546001600160a01b038381166001600160a01b0319831681178455604051919092169283917f8be0079c531659141344cd1fd0a4f28419497f9722a3daafe3b4186f6b6457e09190a35050565b611cb18061007e6000396000f3fe608060405234801561001057600080fd5b506004361061012c5760003560e01c8063a2788cce116100ad578063d4f50f9811610071578063d4f50f981461021e578063ee74c67814610257578063f2fde38b1461025f578063f4ab9adf14610272578063f75d64a61461028557600080fd5b8063a2788cce146101de578063a6d42870146101fe578063a7bfab1614610206578063c7038a4e1461020e578063c88af42f1461021657600080fd5b8063715018a6116100f4578063715018a61461018b5780638da5cb5b146101935780638e7ea5b2146101ae5780638f4d818b146101c35780639a0e7d66146101d657600080fd5b8063230796ae146101315780632fdae3c5146101465780633beee92e146101595780635e870865146101615780636ea212ca14610174575b600080fd5b61014461013f36600461180d565b610298565b005b61014461015436600461183c565b61045e565b6101446106ed565b61014461016f36600461180d565b6108fa565b6008545b6040519081526020015b60405180910390f35b610144610ab0565b6000546040516001600160a01b039091168152602001610182565b6101b6610ae6565b6040516101829190611963565b6101446101d136600461180d565b610c47565b610178610e03565b6101f16101ec36600461180d565b610e84565b60405161018291906119c5565b600654610178565b610144610fe9565b6101446110d1565b6101446111f1565b61023161022c3660046119df565b6112a9565b604080518251151581526020808401511515908201529181015190820152606001610182565b61014461133e565b61014461026d3660046119df565b611412565b6101446102803660046119df565b6114ad565b60045460ff166040516101829190611a40565b336000908152600b602052604090205460ff166102d05760405162461bcd60e51b81526004016102c790611a54565b60405180910390fd5b600360045460ff1660058111156102e9576102e9611a08565b146103065760405162461bcd60e51b81526004016102c790611a80565b336000908152600b6020526040902054610100900460ff1615156001036103685760405162461bcd60e51b8152602060048201526016602482015275165bdd481a185d9948185b1c9958591e481d9bdd195960521b60448201526064016102c7565b6005548111156103af5760405162461bcd60e51b8152602060048201526012602482015271141c9bdc1bdcd85b081b9bdd08199bdd5b9960721b60448201526064016102c7565b336000908152600b6020526040902060018101829055805461ff00191661010017905560058054829081106103e6576103e6611ac1565b60009182526020822060016002909202010180549161040483611aed565b91905055506001600a600082825461041c9190611b06565b909155505060408051338152602081018390527f4d99b957a2bc29a30ebd96a7be8e68fe50a3c701db28a91436490b7d53870ca491015b60405180910390a150565b336000908152600b602052604090205460ff1661048d5760405162461bcd60e51b81526004016102c790611a54565b600160045460ff1660058111156104a6576104a6611a08565b146104c35760405162461bcd60e51b81526004016102c790611b1e565b6007546000036105215760405162461bcd60e51b8152602060048201526024808201527f706c6561736520736574206669727374206e62206d6178206f662070726f706f60448201526373616c7360e01b60648201526084016102c7565b60405160200161053c90602080825260009082015260400190565b60405160208183030381529060405280519060200120816040516020016105639190611b64565b60405160208183030381529060405280519060200120036105d25760405162461bcd60e51b815260206004820152602360248201527f566f7573206e6520706f7576657a20706173206e65207269656e2070726f706f60448201526239b2b960e91b60648201526084016102c7565b600754600654106106255760405162461bcd60e51b815260206004820152601b60248201527f4e62206d6178206f662070726f706f73616c732072656163686564000000000060448201526064016102c7565b60408051808201909152600060208083018290528383526005805460018101825592528251805184936002027f036b6384b5eca791c62761152d0c79bb0604c104a5fb6f4eb0703f3154bb3db001926106829284929101906116db565b506020820151816001015550506001600660008282546106a29190611b06565b90915550506005547f92e393e9b54e2f801d3ea4beb0c5e71a21cc34a5d34b77d0fb8a3aa1650dc18f906106d890600190611b77565b60405190815260200160405180910390a15050565b6000546001600160a01b031633146107175760405162461bcd60e51b81526004016102c790611b8e565b600061072161175f565b6000805b6005548110156107fa57836005828154811061074357610743611ac1565b90600052602060002090600202016001015403610780578083836005811061076d5761076d611ac1565b60200201528161077c81611aed565b9250505b836005828154811061079457610794611ac1565b90600052602060002090600202016001015411156107e8576107b461175f565b8181526005805491945090829081106107cf576107cf611ac1565b9060005260206000209060020201600101549350600191505b806107f281611aed565b915050610725565b5060005b818110156108bf57600183826005811061081a5761081a611ac1565b602090810291909101518254600181018455600093845291909220015560026005848382811061084c5761084c611ac1565b60200201518154811061086157610861611ac1565b6000918252602080832084546001810186559484529220600291820290920180549093909102909101908190839061089890611bc3565b6108a392919061177d565b50600191820154910155806108b781611aed565b9150506107fe565b506004805460ff191660059081178255604051600080516020611c5c833981519152926108ed929091611bfd565b60405180910390a1505050565b6000546001600160a01b031633146109245760405162461bcd60e51b81526004016102c790611b8e565b600060045460ff16600581111561093d5761093d611a08565b1461095a5760405162461bcd60e51b81526004016102c790611c18565b600954156109aa5760405162461bcd60e51b815260206004820152601b60248201527f6e62206f6620766f746572206d617820616c726561647920736574000000000060448201526064016102c7565b6002811015610a105760405162461bcd60e51b815260206004820152602c60248201527f4e62206d6178206f6620766f74657273206d757374206265207375706572696f60448201526b3917b2b8bab0b6103a37901960a11b60648201526084016102c7565b6064811115610a7b5760405162461bcd60e51b815260206004820152603160248201527f50726f6772616d6d20636f64652069732073657420746f20616363657074206d6044820152706178696d756d2031303020766f7465727360781b60648201526084016102c7565b60098190556040518181527fafd8f919e8a961bbc93535fe5d1550fda9f0cef3fc61ffe76634c4171354984e90602001610453565b6000546001600160a01b03163314610ada5760405162461bcd60e51b81526004016102c790611b8e565b610ae4600061168b565b565b6060600560045460ff166005811115610b0157610b01611a08565b14610b4e5760405162461bcd60e51b815260206004820152601960248201527f566f74657320617265206e6f742074616c6c696564207965740000000000000060448201526064016102c7565b6002805480602002602001604051908101604052809291908181526020016000905b82821015610c3e5783829060005260206000209060020201604051806040016040529081600082018054610ba390611bc3565b80601f0160208091040260200160405190810160405280929190818152602001828054610bcf90611bc3565b8015610c1c5780601f10610bf157610100808354040283529160200191610c1c565b820191906000526020600020905b815481529060010190602001808311610bff57829003601f168201915b5050505050815260200160018201548152505081526020019060010190610b70565b50505050905090565b6000546001600160a01b03163314610c715760405162461bcd60e51b81526004016102c790611b8e565b600160045460ff166005811115610c8a57610c8a611a08565b14610ca75760405162461bcd60e51b81526004016102c790611b1e565b60075415610cf75760405162461bcd60e51b815260206004820152601e60248201527f6e62206f662070726f706f73616c206d617820616c726561647920736574000060448201526064016102c7565b6002811015610d605760405162461bcd60e51b815260206004820152602f60248201527f4e62206d6178206f662070726f706f73616c73206d757374206265207375706560448201526e3934b7b917b2b8bab0b6103a37901960891b60648201526084016102c7565b6064811115610dce5760405162461bcd60e51b815260206004820152603460248201527f50726f6772616d6d20636f64652069732073657420746f20616363657074206d6044820152736178696d756d203130302070726f706f73616c7360601b60648201526084016102c7565b60078190556040518181527fef2d243beda50d8a4b8cd5253e402663680e4c513b4cbd3fd60f83181fe46c7090602001610453565b60006004805460ff166005811115610e1d57610e1d611a08565b14610e7d5760405162461bcd60e51b815260206004820152602a60248201527f43757272656e7420737461747573206973206e6f7420766f74696e67207365736044820152691cda5bdb88195b99195960b21b60648201526084016102c7565b50600a5490565b604080518082019091526060815260006020820152336000908152600b602052604090205460ff16610ec85760405162461bcd60e51b81526004016102c790611a54565b600654821115610f1a5760405162461bcd60e51b815260206004820181905260248201527f4e6f742070726f706f73616c206c69737465642077697468207468697320696460448201526064016102c7565b60058281548110610f2d57610f2d611ac1565b9060005260206000209060020201604051806040016040529081600082018054610f5690611bc3565b80601f0160208091040260200160405190810160405280929190818152602001828054610f8290611bc3565b8015610fcf5780601f10610fa457610100808354040283529160200191610fcf565b820191906000526020600020905b815481529060010190602001808311610fb257829003601f168201915b505050505081526020016001820154815250509050919050565b6000546001600160a01b031633146110135760405162461bcd60e51b81526004016102c790611b8e565b600360045460ff16600581111561102c5761102c611a08565b146110495760405162461bcd60e51b81526004016102c790611a80565b6000600a541161109b5760405162461bcd60e51b815260206004820152601860248201527f596f75206e656564206174206c65617374203120766f7465000000000000000060448201526064016102c7565b6004805460ff191681178155604051600080516020611c5c833981519152916110c79160039190611bfd565b60405180910390a1565b6000546001600160a01b031633146110fb5760405162461bcd60e51b81526004016102c790611b8e565b6009546000036111605760405162461bcd60e51b815260206004820152602a60248201527f596f75206e65656420666972737420746f2073657420746865206e62206d6178604482015269206f6620766f7465727360b01b60648201526084016102c7565b6008546000036111c15760405162461bcd60e51b815260206004820152602660248201527f596f75206e65656420666972737420746f20736574206174206c656173742031604482015265103b37ba32b960d11b60648201526084016102c7565b6004805460ff19166001908117909155604051600080516020611c5c833981519152916110c79160009190611bfd565b6000546001600160a01b0316331461121b5760405162461bcd60e51b81526004016102c790611b8e565b6001600654116112795760405162461bcd60e51b815260206004820152602360248201527f596f75206e656564206174206c6561737420746f2061646420322070726f706f6044820152621cd85b60ea1b60648201526084016102c7565b6004805460ff19166002908117909155604051600080516020611c5c833981519152916110c79160019190611bfd565b6040805160608101825260008082526020808301829052828401829052338252600b9052919091205460ff166112f15760405162461bcd60e51b81526004016102c790611a54565b506001600160a01b03166000908152600b60209081526040918290208251606081018452815460ff8082161515835261010090910416151592810192909252600101549181019190915290565b6000546001600160a01b031633146113685760405162461bcd60e51b81526004016102c790611b8e565b600260045460ff16600581111561138157611381611a08565b146113e25760405162461bcd60e51b815260206004820152602b60248201527f5265676973746572696e672070726f706f73616c73207068617365206973206e60448201526a1bdd08199a5b9a5cda195960aa1b60648201526084016102c7565b6004805460ff19166003908117909155604051600080516020611c5c833981519152916110c79160029190611bfd565b6000546001600160a01b0316331461143c5760405162461bcd60e51b81526004016102c790611b8e565b6001600160a01b0381166114a15760405162461bcd60e51b815260206004820152602660248201527f4f776e61626c653a206e6577206f776e657220697320746865207a65726f206160448201526564647265737360d01b60648201526084016102c7565b6114aa8161168b565b50565b6000546001600160a01b031633146114d75760405162461bcd60e51b81526004016102c790611b8e565b600060045460ff1660058111156114f0576114f0611a08565b1461150d5760405162461bcd60e51b81526004016102c790611c18565b60095460000361155f5760405162461bcd60e51b815260206004820181905260248201527f706c6561736520736574206669727374206e62206d6178206f6620766f74657260448201526064016102c7565b6001600160a01b0381166000908152600b602052604090205460ff1615156001036115c15760405162461bcd60e51b8152602060048201526012602482015271105b1c9958591e481c9959da5cdd195c995960721b60448201526064016102c7565b600954600854106116145760405162461bcd60e51b815260206004820152601860248201527f4e62206d6178206f6620766f746572732072656163686564000000000000000060448201526064016102c7565b6001600160a01b0381166000908152600b60205260408120805460ff19166001908117909155600880549192909161164d908490611b06565b90915550506040516001600160a01b03821681527fb6be2187d059cc2a55fe29e0e503b566e1e0f8c8780096e185429350acffd3dd90602001610453565b600080546001600160a01b038381166001600160a01b0319831681178455604051919092169283917f8be0079c531659141344cd1fd0a4f28419497f9722a3daafe3b4186f6b6457e09190a35050565b8280546116e790611bc3565b90600052602060002090601f016020900481019282611709576000855561174f565b82601f1061172257805160ff191683800117855561174f565b8280016001018555821561174f579182015b8281111561174f578251825591602001919060010190611734565b5061175b9291506117f8565b5090565b6040518060a001604052806005906020820280368337509192915050565b82805461178990611bc3565b90600052602060002090601f0160209004810192826117ab576000855561174f565b82601f106117bc578054855561174f565b8280016001018555821561174f57600052602060002091601f016020900482015b8281111561174f5782548255916001019190600101906117dd565b5b8082111561175b57600081556001016117f9565b60006020828403121561181f57600080fd5b5035919050565b634e487b7160e01b600052604160045260246000fd5b60006020828403121561184e57600080fd5b813567ffffffffffffffff8082111561186657600080fd5b818401915084601f83011261187a57600080fd5b81358181111561188c5761188c611826565b604051601f8201601f19908116603f011681019083821181831017156118b4576118b4611826565b816040528281528760208487010111156118cd57600080fd5b826020860160208301376000928101602001929092525095945050505050565b6000815180845260005b81811015611913576020818501810151868301820152016118f7565b81811115611925576000602083870101525b50601f01601f19169290920160200192915050565b600081516040845261194f60408501826118ed565b602093840151949093019390935250919050565b6000602080830181845280855180835260408601915060408160051b870101925083870160005b828110156119b857603f198886030184526119a685835161193a565b9450928501929085019060010161198a565b5092979650505050505050565b6020815260006119d8602083018461193a565b9392505050565b6000602082840312156119f157600080fd5b81356001600160a01b03811681146119d857600080fd5b634e487b7160e01b600052602160045260246000fd5b60068110611a3c57634e487b7160e01b600052602160045260246000fd5b9052565b60208101611a4e8284611a1e565b92915050565b6020808252601290820152712cb7ba93b932903737ba1030903b37ba32b960711b604082015260600190565b60208082526021908201527f566f74696e672073657373696f6e20686176656e7420737461727465642079656040820152601d60fa1b606082015260800190565b634e487b7160e01b600052603260045260246000fd5b634e487b7160e01b600052601160045260246000fd5b600060018201611aff57611aff611ad7565b5060010190565b60008219821115611b1957611b19611ad7565b500190565b60208082526026908201527f50726f706f73616c7320726567697374726174696f6e206973206e6f74206f70604082015265195b881e595d60d21b606082015260800190565b6020815260006119d860208301846118ed565b600082821015611b8957611b89611ad7565b500390565b6020808252818101527f4f776e61626c653a2063616c6c6572206973206e6f7420746865206f776e6572604082015260600190565b600181811c90821680611bd757607f821691505b602082108103611bf757634e487b7160e01b600052602260045260246000fd5b50919050565b60408101611c0b8285611a1e565b6119d86020830184611a1e565b60208082526023908201527f566f7465727320726567697374726174696f6e206973206e6f74206f70656e206040820152621e595d60ea1b60608201526080019056fe0a97a4ee45751e2abf3e4fc8946939630b11b371ea8ae39ccdc3056e98f5cc3fa2646970667358221220bf1c22dbd9130a12e464714f6b53ed785baaf1c9142f76aa33ff220317f10a0564736f6c634300080d0033",
  "immutableReferences": {},
  "source": "// SPDX-License-Identifier: MIT\n\npragma solidity 0.8.13 ;\nimport \"@openzeppelin/contracts/access/Ownable.sol\";\n\n\ncontract Voting is Ownable {\n\n// ::::::::::::: VARS ::::::::::::: //\n    // arrays for draw, uint for single\n    uint[] private winningProposalsID;\n    Proposal[] private winningProposals;\n    uint private winningProposalID;\n    \n    struct Voter {\n        bool isRegistered;\n        bool hasVoted;\n        uint votedProposalId;\n    }\n\n    struct Proposal {\n        string description;\n        uint voteCount;\n    }\n\n    enum WorkflowStatus {\n        RegisteringVoters,\n        ProposalsRegistrationStarted,\n        ProposalsRegistrationEnded,\n        VotingSessionStarted,\n        VotingSessionEnded,\n        VotesTallied\n    }\n\n    WorkflowStatus private workflowStatus;\n    Proposal[] private proposalsArray;\n    uint private nbProposals;\n    uint private nbProposalsMax;\n    uint private nbVoters;\n    uint private nbVotersMax;\n    uint private nbVotes;\n    mapping (address => Voter) private voters;\n//\n\n// ::::::::::::: EVENTS ::::::::::::: //\n\n    event VoterRegistered(address voterAddress); \n    event WorkflowStatusChange(WorkflowStatus previousStatus, WorkflowStatus newStatus);\n    event ProposalRegistered(uint proposalId);\n    event Voted (address voter, uint proposalId);\n    event MaxProposals(uint MaxProposal);\n    event MaxVoters(uint MaxVoters);\n\n//\n// ::::::::::::: MODIFIERS ::::::::::::: //\n\n\n    modifier onlyVoters() {\n        require(voters[msg.sender].isRegistered, 'You\\'re not a voter');\n        _;\n    }\n    modifier onlyRegisteringVotersStatus(){\n        require(workflowStatus == WorkflowStatus.RegisteringVoters, 'Voters registration is not open yet');\n        _;\n    }\n\n    modifier onlyProposalsRegistrationStartedStatus(){\n        require(workflowStatus == WorkflowStatus.ProposalsRegistrationStarted, 'Proposals registration is not open yet');\n        _;\n    }\n    modifier onlyVotingSessionStartedStatus(){\n        require(workflowStatus == WorkflowStatus.VotingSessionStarted, 'Voting session havent started yet');\n        _;\n    }\n    modifier onlyVotingSessionEndedStatus(){\n       require(workflowStatus == WorkflowStatus.VotingSessionEnded, 'Current status is not voting session ended');\n       _;\n    }\n//    \n\n// ::::::::::::: GETTERS ::::::::::::: //\n\n    function getNbProposals()public view returns (uint){\n        return nbProposals;\n    }\n    function getNbVoters()public view returns (uint){\n        return nbVoters;\n    }\n    function getOneProposal(uint _id) external onlyVoters view returns (Proposal memory) {\n        require(_id<=nbProposals,'Not proposal listed with this id');\n        return proposalsArray[_id];\n    }\n    function getTotalVotes()public view onlyVotingSessionEndedStatus returns (uint){\n        return nbVotes;\n    }\n    function getVoter(address _addr) external onlyVoters view returns (Voter memory) {\n        return voters[_addr];\n    }\n    function getWinner() external view returns (Proposal[] memory) {\n        require(workflowStatus == WorkflowStatus.VotesTallied, 'Votes are not tallied yet');\n        return winningProposals;\n    }\n    function getWorkflowStatus() public view returns (WorkflowStatus){\n        return workflowStatus;\n    }\n//\n\n// ::::::::::::: REGISTRATION ::::::::::::: // \n    function defineMaxVoters(uint _nbVotersMax) external onlyOwner onlyRegisteringVotersStatus{\n        require(nbVotersMax==0,'nb of voter max already set');\n        require(_nbVotersMax>=2,'Nb max of voters must be superior/equal to 2');\n        require(_nbVotersMax<=100,'Programm code is set to accept maximum 100 voters');\n        nbVotersMax=_nbVotersMax;\n        emit MaxVoters(nbVotersMax);\n    }\n\n    function addVoter(address _addr) public onlyOwner onlyRegisteringVotersStatus{\n        require(nbVotersMax!=0,'please set first nb max of voter');\n        require(voters[_addr].isRegistered != true, 'Already registered');\n        require(nbVoters<nbVotersMax,'Nb max of voters reached');\n        voters[_addr].isRegistered = true;\n        nbVoters+=1;\n        emit VoterRegistered(_addr);\n    }\n//\n\n// ::::::::::::: PROPOSAL ::::::::::::: // \n    function defineMaxProposals(uint _nbProposalsMax) external onlyOwner onlyProposalsRegistrationStartedStatus{\n        require(nbProposalsMax==0,'nb of proposal max already set');\n        require(_nbProposalsMax>=2,'Nb max of proposals must be superior/equal to 2');\n        require(_nbProposalsMax<=100,'Programm code is set to accept maximum 100 proposals');\n        nbProposalsMax=_nbProposalsMax;\n\n        emit MaxProposals(nbProposalsMax);\n    }\n\n    function addProposal(string memory _desc) external onlyVoters onlyProposalsRegistrationStartedStatus{\n        require(nbProposalsMax!=0,'please set first nb max of proposals');\n        require(keccak256(abi.encode(_desc)) != keccak256(abi.encode(\"\")), 'Vous ne pouvez pas ne rien proposer'); // facultatif\n        require(nbProposals<nbProposalsMax,'Nb max of proposals reached');\n\n\n        // voir que desc est different des autres\n\n        Proposal memory proposal;\n        proposal.description = _desc;\n        proposalsArray.push(proposal);\n        nbProposals+=1;\n        emit ProposalRegistered(proposalsArray.length-1);\n    }\n//\n\n// ::::::::::::: VOTE ::::::::::::: //\n\n    function setVote( uint _id) external onlyVoters onlyVotingSessionStartedStatus{\n        require(voters[msg.sender].hasVoted != true, 'You have already voted');\n        require(_id <= proposalsArray.length, 'Proposal not found'); // pas oblig, et pas besoin du >0 car uint\n\n        voters[msg.sender].votedProposalId = _id;\n        voters[msg.sender].hasVoted = true;\n        proposalsArray[_id].voteCount++;\n        nbVotes+=1;\n        emit Voted(msg.sender, _id);\n    }\n\n//\n\n// ::::::::::::: STATE ::::::::::::: //\n\n    function startProposalsRegistering() external onlyOwner {\n        require(nbVotersMax!=0,'You need first to set the nb max of voters');\n        require(nbVoters!=0,'You need first to set at least 1 voter');\n        workflowStatus = WorkflowStatus.ProposalsRegistrationStarted;\n        emit WorkflowStatusChange(WorkflowStatus.RegisteringVoters, WorkflowStatus.ProposalsRegistrationStarted);\n    }\n\n    function endProposalsRegistering() external onlyOwner {\n        require(nbProposals>1,'You need at least to add 2 proposal');\n        workflowStatus = WorkflowStatus.ProposalsRegistrationEnded;\n        emit WorkflowStatusChange(WorkflowStatus.ProposalsRegistrationStarted, WorkflowStatus.ProposalsRegistrationEnded);\n    }\n\n    function startVotingSession() external onlyOwner {\n        require(workflowStatus == WorkflowStatus.ProposalsRegistrationEnded, 'Registering proposals phase is not finished');\n        workflowStatus = WorkflowStatus.VotingSessionStarted;\n        emit WorkflowStatusChange(WorkflowStatus.ProposalsRegistrationEnded, WorkflowStatus.VotingSessionStarted);\n    }\n\n    function endVotingSession() external onlyOwner {\n        require(workflowStatus == WorkflowStatus.VotingSessionStarted, 'Voting session havent started yet');\n        require(nbVotes>0,'You need at least 1 vote');\n        workflowStatus = WorkflowStatus.VotingSessionEnded;\n        emit WorkflowStatusChange(WorkflowStatus.VotingSessionStarted, WorkflowStatus.VotingSessionEnded);\n    }\n\n    function tallyVotesDraw() external onlyOwner {\n        uint highestCount;\n        uint[5]memory winners; // egalite entre 5 personnes max\n        uint nbWinners;\n        for (uint i = 0; i < proposalsArray.length; i++) {\n            if (proposalsArray[i].voteCount == highestCount) {\n                winners[nbWinners]=i;\n                nbWinners++;\n            }\n            if (proposalsArray[i].voteCount > highestCount) {\n                delete winners;\n                winners[0]= i;\n                highestCount = proposalsArray[i].voteCount;\n                nbWinners=1;\n            }\n        }\n        for(uint j=0;j<nbWinners;j++){\n            winningProposalsID.push(winners[j]);\n            winningProposals.push(proposalsArray[winners[j]]);\n        }\n        workflowStatus = WorkflowStatus.VotesTallied;\n        emit WorkflowStatusChange(WorkflowStatus.VotingSessionEnded, WorkflowStatus.VotesTallied);\n    }\n//\n}",
  "sourcePath": "/home/victor/AlyraTests/Daap/contracts/Voting.sol",
  "compiler": {
    "name": "solc",
    "version": "0.8.13+commit.abaa5c0e.Emscripten.clang"
  },
  "schemaVersion": "3.4.6",
  "updatedAt": "2022-04-24T20:12:11.499Z",
  "networkType": "ethereum",
  "devdoc": {
    "kind": "dev",
    "methods": {
      "owner()": {
        "details": "Returns the address of the current owner."
      },
      "renounceOwnership()": {
        "details": "Leaves the contract without owner. It will not be possible to call `onlyOwner` functions anymore. Can only be called by the current owner. NOTE: Renouncing ownership will leave the contract without an owner, thereby removing any functionality that is only available to the owner."
      },
      "transferOwnership(address)": {
        "details": "Transfers ownership of the contract to a new account (`newOwner`). Can only be called by the current owner."
      }
    },
    "version": 1
  },
  "userdoc": {
    "kind": "user",
    "methods": {},
    "version": 1
  }
}